:1000000000600020A90100003F02000051470000ED
:1000100043020000450200004702000049020000C0
:100020000000000000000000000000004B02000083
:100030004D020000000000004F020000750B0000A0
:10004000F944000001450000094500001145000089
:1000500019450000214500002945000031450000F8
:100060003945000041450000494500005145000068
:1000700059450000614500006945000071450000D8
:100080007945000081450000894500009145000048
:1000900099450000A1450000A9450000B1450000B8
:1000A000B9450000C1450000C9450000D145000028
:1000B000D9450000E1450000E9450000F145000098
:1000C000F945000001460000094600001146000005
:1000D0001946000021460000294600003146000074
:1000E00039460000414600004946000051460000E4
:1000F0005946000061460000694600007146000054
:1001000079460000814600008946000091460000C3
:1001100099460000A1460000A9460000B146000033
:10012000B9460000C1460000C9460000D1460000A3
:10013000D9460000E1460000E9460000F146000013
:10014000F946000001470000094700001147000080
:1001500019470000214700002947000031470000EF
:10016000394700004147000049470000B0640000E3
:10017000000000200C000000B0640000000000043B
:1001800000000000B0640000002000040000000037
:100190000C0000201003000000000004000000001C
:1001A000002000040000000072B6134B134A1748E9
:1001B0000360196881F3088882F30A8803F0BEFCA3
:1001C0000F4B07E003F10C049A685968186800F0B7
:1001D0001FF823460B4A9342F4D306E01C465968A5
:1001E00054F8080B00F022F82346074A9342F5D34F
:1001F00062B604F0DAFDFEE700000000005A0020BD
:100200006C01000090010000A801000008ED00E072
:100210000023934209D210B450F8044B41F8044B28
:1002200004339342F8D310BC70477047002303E0B7
:10023000002240F8042B04338B42F9D37047FEE7C9
:10024000FEE7FEE7FEE7FEE7FEE7FEE7FEE7FEE786
:10025000FEE7FEE7FFFFFFFF2DE9B04FA8B000AFBC
:1002600078663966BB65134687F85F300023FB6705
:100270007B6E1B6EDB0E03F00702974B9B5C1A46EE
:10028000BB6DB3FBF2F3BB674FF0FF33C7F88C30A5
:10029000FF23C7F8903097F85F30032B43D18CA32E
:1002A000D3E90023C7E92023D7E92023941843EB9F
:1002B0000305C7E92045BB6F00223B657A65D7E996
:1002C0001423D7E9200104F0AAFE02460B46C7E931
:1002D00020237FA3D3E90023C7E92623D7E92645B6
:1002E00022462B464FF000004FF00001190241EA70
:1002F0001261100202460B4612EB040843EB05099B
:10030000C7E92689BB6F0022BB64FA64D7E91223D0
:10031000D7E9260104F083FE02460B46C7E92623EF
:100320000123FB6733E06AA3D3E90023C7E9202355
:10033000BB6F00223B647A64D7E91023D7E9200120
:1003400004F06DFE02460B46C7E9202360A3D3E903
:100350000023C7E92623D7E926234FF000004FF0FA
:100360000001190241EA12611002C7E92601BB6FC0
:100370000022BB63FA63D7E90E23D7E9260104F014
:100380004EFE02460B46C7E926230023FB673B6E61
:1003900000223B637A63D7E92023D7E90C010446A6
:1003A000A2428B4109D397F85F301A460021786E3C
:1003B00002F030F9D7F8803083E00023C7F894309A
:1003C0006FE0D7F88C30002B70D041A3D3E9002325
:1003D000C7E91C23D7F894300022BB62FA62FB6F96
:1003E00000223B627A62D7E90A452346D7E9080131
:1003F00002469B18BB612B460A465341FB61D7E975
:1004000006120B4601333B61134643F100037B6147
:100410007B6FD7E90445224602FB03F23B6F294676
:1004200001FB03F31A443B6F2146A3FB01AB02EB34
:100430000B039B46C7E91CABC7E91CABBB6F002293
:10044000BB60FA60D7E90223D7E91C0104F0E7FD9D
:1004500002460B46C7E91C233B6E00223B607A60D4
:10046000D7E91C23D7E900010446A2428B4113D3EC
:100470003A6F3B6ED31AFB66D7F88C20FB6E9A421C
:100480000AD9FB6EC7F88C30D7F89430C7F8903093
:10049000D7E91C23C7E92623D7F894300133C7F8DE
:1004A0009430D7F89430FF2B8BD900E000BF97F839
:1004B0005F301A46D7F89010786E02F0ABF8D7F894
:1004C00098301846A037BD46BDE8B08FAFF3008026
:1004D00000CA9A3B00000000245C000080B582B096
:1004E00000AF78607968024803F070FF00BEFDE756
:1004F000F051000080B58AB000AFB9607B60034660
:10050000FB731346BB73BB7B012B01D001232AE095
:10051000174ABB7B13747B687B61BB68BB6100239C
:100520003B7700237B770123BB770123FB770023F5
:1005300087F82030002387F82130FB7B87F82230B2
:10054000002387F82330002387F8243007F11403B1
:100550001946074803F094FB054B064A9A60044B82
:10056000054ADA60002318462837BD4680BD00BF23
:100570000C000020713D0000053D000080B584B0F6
:1005800000AF786039600023FB60094B1B7C002BB7
:1005900002D14FF0FF3306E03A687968054800F071
:1005A00041F8F860FB6818461037BD4680BD00BFB3
:1005B0000C000020B905000080B582B000AF786063
:1005C000084B1B7C002B02D14FF0FF3306E0054B9C
:1005D0009B68391D012203489847012318460837B4
:1005E000BD4680BD0C00002080B582B000AF0C4B32
:1005F0001B7C002B05D14FF0FF330DE04FF0FF3394
:100600000AE000BF064BDB68F91D01220448984749
:100610000346002BF2D1FB7918460837BD4680BD52
:100620000C00002080B59CB002AFF860B9607A6021
:1006300000233B660023FB650023FB61002387F852
:100640004A3000237B61BB687B667B6E1B78002B86
:1006500000F0D2817B6E1B7887F8493097F84930DB
:10066000252B0BD097F84920FB6810469847FB696B
:100670000133FB617B6E01337B66BCE1012387F8AC
:100680004B3000237B65002387F85B3020E07B6ED6
:1006900001337B667B6E1B7887F8493097F84930C9
:1006A0002F2B0FD997F84930392B0BD87A6D134679
:1006B0009B0013445B001A4697F849301344303BC3
:1006C0007B6505E07B6E013B7B66012387F85B3031
:1006D00097F85B3083F00103DBB2002BD7D17B6E40
:1006E00001337B667B6E1B782E2B2ED100233B655E
:1006F000002387F85B3020E07B6E01337B667B6EE6
:100700001B7887F8493097F849302F2B0FD997F885
:100710004930392B0BD83A6D13469B0013445B00CC
:100720001A4697F849301344303B3B6505E07B6E31
:10073000013B7B66012387F85B3097F85B3083F0E1
:100740000103DBB2002BD7D102E07B6E013B7B665D
:100750007B6E01337B667B6E1B7887F8493097F898
:100760004930642B24D097F84930692B20D097F872
:100770004930662B1CD097F84930462B18D097F893
:100780004930782B14D097F84930582B10D097F86F
:1007900049306F2B0CD097F84930622B08D097F86E
:1007A0004930702B04D097F84930752B40F0DC802D
:1007B00097F84930642B03D097F84930692B15D14D
:1007C0007B681A1D7A601B68BB6107F1180107F18D
:1007D000200097F84B3000930A23012203F02CFEEF
:1007E000F86507F12002FB6D13443B6697F849302A
:1007F000582B03D097F84930782B1CD197F8493003
:10080000782B02D1002387F84B307B681A1D7A6061
:100810001B687B6107F1140107F1200097F84B304A
:1008200000931023002203F007FEF86507F1200271
:10083000FB6D13443B6697F849306F2B0BD097F84C
:100840004930622B07D097F84930702B03D097F8C6
:100850004930752B6AD197F84930702B0DD17B68E0
:100860001A1D7A601B683B6107F1100107F1140340
:100870000422184600F0C6F804E07B681A1D7A606E
:100880001B687B6197F84930623B132B3AD801A271
:1008900052F823F0ED0800000509000005090000EA
:1008A0000509000005090000050900000509000010
:1008B0000509000005090000050900000509000000
:1008C0000509000005090000E5080000F508000022
:1008D00005090000050900000509000005090000E0
:1008E000FD080000082387F84A300CE0022387F84F
:1008F0004A3008E0102387F84A3004E00A2387F8DA
:100900004A3000E000BF97F84A2007F1140107F1D0
:10091000200097F84B3000931346002203F08CFD23
:10092000F86507F12002FB6D13443B667A6D07F111
:100930001C01FB6800930B46F96D202003F05CFD61
:100940003B6E002B54D00AE03B6E5A1E3A661B7871
:100950001A46FB6810469847FB690133FB613B6E02
:100960001B78002BF0D143E097F84930632B0BD173
:100970007B681A1D7A601B687B64FB68786C9847FB
:10098000FB690133FB6133E097F84930732B27D1C2
:100990007B681A1D7A601B68FB64FB6C002B27D0F8
:1009A000F86C04F042FA0346FB657A6D07F11C010E
:1009B000FB6800930B46F96D202003F01DFD0AE053
:1009C000FB6C5A1CFA641B781A46FB681046984761
:1009D000FB690133FB61FB6C1B78002BF0D107E056
:1009E00097F84920FB6810469847FB690133FB6183
:1009F0007B6E01337B6628E600BFFB6918466837CB
:100A0000BD4680BDF1B5002A4BD011F0030306D0DE
:100A100011F8014B013A00F8014B42D0F5E710F014
:100A200003031BD1102A04DB103AF0C9102AF0C0CE
:100A3000FAD2130744BF30C930C0530744BF51F83E
:100A4000044B40F8044B930744BF31F8024B20F8A5
:100A5000024BD30744BF0C78047022E0C3070AD4CA
:100A6000042A16D351F8044B043A20F8024B250C03
:100A700020F8025BF4E7042A0BD351F8044B043A44
:100A800000F8014B250A20F8025B260E00F8016BE6
:100A9000F1E7002A1EBF11F8014B00F8014B013AA3
:100AA000F7D1F1BD80B483B000AF03463960FB716C
:100AB00097F90730002B0ADB3B68DAB20C4997F94B
:100AC00007305201D2B20B4483F800230AE03B689E
:100AD000DAB20849FB7903F00F03043B5201D2B2AA
:100AE0000B441A7600BF0C37BD4680BC704700BF70
:100AF00000E100E000ED00E080B582B000AF78607A
:100B00007B68013BB3F1807F01D301230FE00A4AE8
:100B10007B68013B536007214FF0FF30FFF7C2FFB6
:100B2000054B00229A60044B07221A6000231846E6
:100B30000837BD4680BD00BF10E000E080B584B03E
:100B400000AFF860B9607A60BB68032B02D908482F
:100B5000FFF7C4FC7B68BA681103FA680A4402F51F
:100B6000805203F07F03536100BF1037BD4680BD44
:100B70000452000080B400AF044B1B680133034AE9
:100B8000136000BFBD4680BC704700BF100200204C
:100B900080B483B000AF7860074B00221A6000BFBA
:100BA000054B1B687A689A42FAD800BF00BF0C3721
:100BB000BD4680BC704700BF1002002080B584B0E5
:100BC00000AFF860B9607A603B607B68002B02D1AF
:100BD000044803F0FBFB044B01221A7000BF1037DE
:100BE000BD4680BDB45200001803002080B582B01D
:100BF00002AF082004F014F80121D42000F0D8F945
:100C00004FF4500003F03AFE03F0C4F904F0BAF8D0
:100C100003F0E0F8364803F0D9FB364800F0A6FDB3
:100C20003449354800F00CFD344801F027FC334BC3
:100C3000334A1A60314B00221A76304B0022DA60B8
:100C40002E4B00221A612D4B00225A61002000F029
:100C50008BFB03462B4A13602A4B1B681A46274915
:100C6000294801F069FB20220021284804F0A4F85B
:100C700020220021264804F09FF800221E49234824
:100C800001F008F901221C49214801F003F9102262
:100C900001211948FFF752FF0F2200211648FFF7E4
:100CA0004DFF1B4B0193194B00930023194A1A491E
:100CB000154801F053FE4FF4A0021749124801F005
:100CC000AFFE164B1B68164AA2FB03239B0918466E
:100CD000FFF712FF00F088F8124803F077FBFFF7E8
:100CE00083FC114B1B6801330F4A1360F4E700BF0C
:100CF000F052000004010020000008402001002004
:100D0000808D5B001C01002000C00940C400002051
:100D1000E4000020BD0B000020000020080000209F
:100D2000D34D6210185300000000002080B500AFC2
:100D3000104A0721104803F04DFD104B0D4A1A6070
:100D40000E4B00225A600D4BA8229A600C4B0022D9
:100D50001A700A4A0B490C4801F00CFF00BF084BFF
:100D60001B78DBB283F00103DBB2002BF7D100BFAD
:100D700000BF80BD6801002050010020400100201C
:100D8000180300202000002000C0094080B582B078
:100D900000AF00237B601CE012497A6813465B00B9
:100DA00013440B4400221A700E497A6813465B0004
:100DB00013440B44013300221A700A497A6813461F
:100DC0005B0013440B44023300221A707B6801332A
:100DD0007B607B68062BDFD9FFF7A8FF00BF0837D1
:100DE000BD4680BD50010020B0B58CB000AF464B71
:100DF00007F110041D460FCD0FC495E8070084E8E5
:100E00000700FFF7C3FFFA20FFF7C2FE0623FB62CD
:100E100067E03E4A07F10803126811461980023361
:100E2000120C1A703B7A1A46FB6A9B0030333B4423
:100E300053F8203C02FB03F3354AA2FB03235B0972
:100E4000D8B23449FA6A13465B0013440B44024695
:100E50001A702E4A3B1D1268114619800233120C7B
:100E60001A707B791A46FB6A9B0030333B4453F877
:100E7000203C02FB03F3264AA2FB03235B09D8B202
:100E80002449FA6A13465B0013440B4401330246BB
:100E90001A701E4A3B461268114619800233120C22
:100EA0001A70BB781A46FB6A9B0030333B4453F8F8
:100EB000203C02FB03F3164AA2FB03235B09D8B2D2
:100EC0001449FA6A13465B0013440B44023302468A
:100ED0001A70FFF72BFFFA20FFF75AFEFB6A013B5F
:100EE000FB62FB6A002B94DC0A4B0B4A126811462A
:100EF00019800233120C1A70FFF718FFFA20FFF75F
:100F000047FEFFF743FF81E74453000060530000B2
:100F10001F85EB51500100203C53000080B584B088
:100F200000AF03463960FB80FB8803F1804303F583
:100F30001123FB60FB88B3F5007F02D91948FFF746
:100F4000CDFAFB88B3F5007F15D1174B5B6923F011
:100F5000E0623B681B0603F0E063134913434B61F7
:100F600000BF114B1A693B681B06534003F0E06356
:100F7000002BF6D112E00D4BD3F8FC330B4A23F0D3
:100F80000103C2F8FC33FB683A681A60074BD3F8D8
:100F9000FC33064A43F00103C2F8FC3300BF1037AC
:100FA000BD4680BD6453000000F0084000100940B9
:100FB00080B584B000AF03463960FB80FB8803F145
:100FC000804303F51123FB60FB88B3F5607F02D9F2
:100FD0001448FFF783FA144BD3F8FC33124A23F07A
:100FE0000103C2F8FC33FB684FF0C0421A603B6853
:100FF000002B06D1FB681B6843F08042FB681A6037
:1010000003E03B685A1EFB681A60074BD3F8FC33B9
:10101000054A43F00103C2F8FC3300BF1037BD4658
:1010200080BD00BF905300000010094080B485B01F
:1010300000AF78600023FB737B68344A93421DD075
:101040007B68324A93421CD87B68314A934212D063
:101050007B682F4A934214D87B682E4A934204D06F
:101060007B682D4A934203D00BE00123FB730BE016
:101070000323FB7308E00523FB7305E00723FB73E1
:1010800002E00F23FB7300BFFB7B0F2B01D1012379
:1010900037E0FB7B5B00214A03F00E03C2F8083304
:1010A0001E4BD3F800331D4A23F40003C2F800336B
:1010B0001A4BD3F80033194A43F01003C2F8003337
:1010C000164BD3F80033154A43F02003C2F800331F
:1010D000124BD3F80033114A43F00103C2F8003336
:1010E0000E4BD3F800330D4A43F40003C2F800332B
:1010F00000BF0A4BD3F8003303F08073002BF8D005
:10110000002318461437BD4680BC704700B0710BF1
:1011100000D8B805006CDC020090D00300F0084055
:1011200080B400AF124BD3F80032114A23F400030D
:10113000C2F800320E4BD3F800320D4A43F02003C0
:10114000C2F800320A4BD3F80032094A43F40003D4
:10115000C2F8003200BF064BD3F8003203F08073B0
:10116000002BF8D000231846BD4680BC704700BF56
:1011700000F0084080B400AF064BD3F8003203F013
:101180002003002B01D0044B00E000231846BD468D
:1011900080BC704700F00840001BB70080B400AF6F
:1011A000024B1846BD4680BC704700BF40420F004E
:1011B00080B483B000AF264BD3F8003303F00103B3
:1011C000002B06D0224BD3F8003303F00503002B8D
:1011D00001D100237B601E4BD3F808335B0803F07A
:1011E0000703072B2AD801A252F823F00D120000A2
:1011F00013120000191200001F1200002512000037
:101200002B1200003112000037120000114B7B60DE
:1012100017E0114B7B6014E00F4B7B6011E00F4B2C
:101220007B600EE00E4B7B600BE00E4B7B6008E0BA
:101230000D4B7B6005E00D4B7B6002E000237B6083
:1012400000BF7B6818460C37BD4680BC704700BFA6
:1012500000F0084000512502006CDC020090D00331
:1012600000A24A0400D8B8050044950800B0710BEC
:1012700080B483B000AF0346FB710D4BD3F800324E
:1012800003F00103002B0CD0094BD3F82022FB798B
:101290005B00134003F00303002B02D04FF47A539A
:1012A00000E0002318460C37BD4680BC704700BFE5
:1012B0000030094080B400AF074BD3F8003103F091
:1012C0008073002B02D0054B1B6800E000231846FA
:1012D000BD4680BC704700BF00F0084004000020FD
:1012E00080B582B000AF00237B60164B1B691B0EDC
:1012F00003F00703013B032B1BD801A252F823F094
:10130000111300001913000021130000291300001D
:10131000FFF7D0FF78600FE0FFF72CFF78600BE05D
:10132000FFF746FF786007E00120FFF7A1FF786034
:1013300002E000237B6000BF7B6818460837BD468B
:1013400080BD00BF00F0084080B500AFFFF7C8FFC8
:101350000246044BD3F88033DBB20133B2FBF3F324
:10136000184680BD0010094080B586B000AF786097
:1013700000237B617B68002B03D1294BD3F8D0304D
:1013800002E0274BD3F8D8303B617B68002B03D1B8
:10139000234BD3F8D43002E0214BD3F8DC30FB6090
:1013A000F86803F05AFA0346002B01D0002333E01B
:1013B0003B69052B27D801A252F823F0D513000072
:1013C00007140000DD130000F713000007140000ED
:1013D000FF130000FFF7CEFE786117E0FFF7E8FE8D
:1013E00002460F4BD3F8543103F00F030133B2FB25
:1013F000F3F37B610AE0FFF75DFF786106E0FFF73A
:10140000CDFE786102E000237B6100BFFB68DBB2A8
:1014100001337A69B2FBF3F318461837BD4680BD35
:101420000010094080B483B000AF0346FB7197F908
:101430000730002B0BDBFB7903F01F02064997F9FD
:1014400007305B09012000FA02F241F8232000BFB7
:101450000C37BD4680BC704700E100E080B487B027
:1014600000AF78607B681B0C7B617B689BB23B6143
:101470007A691A4B1344FB607B68B3F1FF3F28D0B5
:10148000174BD3F8FC33164A23F00103C2F8FC33A0
:101490007B69FA2B0FD1124BD3F8382901213B6914
:1014A00001FA03F30E491343C1F838390C4B4FF0DE
:1014B00080725A6404E001223B699A40FB681A601A
:1014C000074BD3F8FC33064A43F00103C2F8FC3360
:1014D00000E000BF1C37BD4680BC70474410094087
:1014E0000010094080B584B000AFF860B9607A6040
:1014F000BB68032B02D90848FEF7F0FF7B68BA6887
:101500001103FA680A4402F5805203F07F03536125
:1015100000BF1037BD4680BDBC53000080B584B00D
:1015200000AFF860B9601346FB71BB68032B02D9AA
:101530001548FEF7D3FFFB79002B10D0BB681A03C8
:10154000FB68134403F58053DB68BA681103FA683B
:101550000A4402F5805243F48033D3600FE0BB6845
:101560001A03FB68134403F58053DB68BA68110360
:10157000FA680A4402F5805223F48033D36000BF36
:101580001037BD4680BD00BF0C54000080B584B04C
:1015900000AFF860B9601346FB71BB68032B02D93A
:1015A0001548FEF79BFFFB79012B10D1BB681A038E
:1015B000FB68134403F58053DB68BA681103FA68CB
:1015C0000A4402F5805243F40043D3600FE0BB6845
:1015D0001A03FB68134403F58053DB68BA681103F0
:1015E000FA680A4402F5805223F40043D36000BF36
:1015F0001037BD4680BD00BF5C54000080B584B08C
:1016000000AF78600023FB6006E00B4A7B689342E2
:1016100006D0FB680133FB60FB68002BF5D000E0CF
:1016200000BFFB68002B02D00448FEF757FFFB68A1
:1016300018461037BD4680BD00000840B054000079
:1016400080B584B000AF786039603B68002B02D170
:101650002C48FEF743FF0023FB607868FFF7CEFFBE
:1016600008231846FFF7FAFE7868FFF7C7FF08233C
:10167000184603F01BF97B681B68BB60BB6823F04E
:10168000F6023B681B78DB01DBB21A433B689B78B0
:101690001B0103F010031A433B681B799B0003F006
:1016A00004031A433B68DB785B0003F002031A4330
:1016B0003B685B789B0103F040031343BB607B688E
:1016C000BA681A600023FB6013E03B68FA680232D4
:1016D00053F82230002B09D03B68FA68023253F8E5
:1016E00022301A46F968786800F00EF8FB6801337A
:1016F000FB60FB68032BE8D900BF00BF1037BD4675
:1017000080BD00BFE454000080B584B000AFF86035
:10171000B9607A607B68002B02D11348FEF7DEFEC9
:101720007B681A46B968F86800F094F87B685B68D3
:10173000002B06D07B685B681A46B968F868FFF72B
:10174000D1FE7B681B7A1A46B968F868FFF7E6FE97
:101750007B685B7A1A46B968F868FFF717FF00BF25
:101760001037BD4680BD00BF0455000080B582B073
:1017700000AF78607B68002B02D10D48FEF7AEFE0B
:1017800018220021786803F017FB7B6800221A7189
:101790007B6801229A707B6800221A707B680022A5
:1017A000DA707B6801225A7000BF0837BD4680BDE1
:1017B0002C55000080B582B000AF786039603B687E
:1017C000032B02D90A48FEF789FE0322396878689C
:1017D00000F016FB3B681A037B68134403F5815342
:1017E000184600F06DF800BF0837BD4680BD00BF49
:1017F0004C55000080B584B000AFF860B9607A60E5
:101800003B60BB68032B02D90F48FEF767FE7B687D
:10181000002B02D10D48FEF761FE3B6803F01F0369
:10182000002B02D00A48FEF759FEBB681A03FB687A
:10183000134403F581533A687968184600F07CF840
:1018400000BF1037BD4680BD9C550000EC55000020
:101850000C56000080B586B000AFF860B9607A60C1
:10186000BB68032B02D91448FEF738FE7B68002BB7
:1018700002D11248FEF732FE7B685B78FB757B680D
:101880001B78BB757B689B787B75BB7DDA07FB7D1E
:101890009B0703F080431A437B7D03F00703B9687D
:1018A0000803F968014401F5805113430B6100BF3F
:1018B0001837BD4680BD00BF40560000905600005E
:1018C00080B582B000AF78607B68002B02D11848E9
:1018D000FEF704FE7B6803F01F03002B02D01548BF
:1018E000FEF7FCFD7B6800221A607B6800229A806C
:1018F0007B680022DA807B6800229A607B68002285
:10190000DA607B6800221A617B6800229A827B6819
:101910000022DA827B6800229A617B6808229A831F
:101920007B680022DA8300BF0837BD4680BD00BF58
:10193000B0560000D056000080B584B000AFF8600B
:10194000B9607A60FB68002B02D11548FEF7C6FD2E
:10195000FB6803F01F03002B02D01248FEF7BEFD08
:10196000BB68002B02D11048FEF7B8FDB968F868D3
:1019700000F01CF87B68002B0DD07A68FB689A6138
:10198000FB689B8B9BB243F010039BB223F00803D0
:101990009AB2FB689A8300BF1037BD4680BD00BF76
:1019A00000570000205700005057000080B584B059
:1019B00000AF786039603B68002B02D17748FEF7B2
:1019C0008DFD3B681A693B681B7A19464FF0FF335F
:1019D0008B40DB431340002B02D07148FEF77EFDA5
:1019E0003B681A693B685B7A19464FF0FF338B40BE
:1019F000DB431340002B02D06A48FEF76FFD3B68C3
:101A0000B3F90A301A463B681B7A19464FF0FF3388
:101A10008B40DB431340002B02D06348FEF75EFD92
:101A20003B68B3F90C301A463B685B7A19464FF0B5
:101A3000FF338B40DB431340002B02D05B48FEF7A3
:101A40004DFD3B681A683B681B7A19464FF0FF331F
:101A50008B40DB431340002B02D05548FEF73EFD80
:101A60003B685A683B685B7A19464FF0FF338B40FE
:101A7000DB431340002B02D04E48FEF72FFD3B689E
:101A80001A683B689B7E19464FF0FF338B40DB435F
:101A90001340002B02D04848FEF720FD3B685A68EF
:101AA0003B6893F8203019464FF0FF338B40DB43FF
:101AB0001340002B02D04148FEF710FD3B681A6826
:101AC0007B681A603B685A687B681A613B681B7ABE
:101AD0001B029BB203F4E0639AB23B685B7A03F0AB
:101AE00007039BB213439AB27B68DA803B68B3F971
:101AF0000A309AB27B689A803B68B3F90C309AB28C
:101B00007B689A823B6893F82830002B04D13B68AD
:101B100093F82930002B18D03B681B69C3F30902E6
:101B20003B68DB6A9902264B0B401A433B6893F8EB
:101B300029309B0703F080431A433B6893F8283011
:101B4000DB071A437B689A6005E03B681B6923F05A
:101B500040427B689A603B685B699AB27B68DA8234
:101B60003B685B699AB27B68DA837B6808229A8358
:101B70003B681B6C002B25D03B681B6C1A467B68AE
:101B80009A617B689B8B9BB243F010039BB223F05E
:101B900008039AB27B689A8321E000BF7057000067
:101BA00094570000F85700005C580000C45800002B
:101BB000305900008C590000EC590000485A0000D0
:101BC00000FCFF3F7B689B8B9BB223F010039AB213
:101BD0007B689A833B685B6A1A467B689A617B687C
:101BE0009B8B9BB21AB23B681B8B1BB223F0010389
:101BF0001BB213431BB29AB27B689A833B6893F87B
:101C00003830002B3BD07B68DB8A9BB26FEA4343C2
:101C10006FEA53439AB27B68DA827B68DB8B9BB2B4
:101C20006FEA43436FEA53439AB27B68DA837B6877
:101C3000DB8A9BB223F4C063FB813B68DB6B9BB206
:101C40005B029BB203F4C0639AB2FB891343FB812E
:101C50007B68FA89DA827B68DB8B9BB223F4C063F2
:101C6000FB813B68DB6B9BB25B029BB203F4C063FE
:101C70009AB2FB891343FB817B68FA89DA833B685C
:101C800093F83030002B1AD07B689B8B9BB243F0CB
:101C900020039AB27B689A837B689B8B9BB223F468
:101CA0004073FB813B685B6B9BB21B029BB203F4EE
:101CB00040739AB2FB8913439AB27B689A833B685C
:101CC00093F8303083F00103DBB2002B1FD03B6868
:101CD00093F8383083F00103DBB2002B17D07B6818
:101CE000DB8A9BB2C3F30E039AB27B68DA827B680D
:101CF000DB8B9BB2C3F30E039AB27B68DA837B68FB
:101D00009B8B9BB223F020039AB27B689A833B683B
:101D1000DB691A467B68DA607B68DB889AB240F23E
:101D200007731340FB813B6893F82030DB009BB2C4
:101D3000DBB29AB2FB8913439AB23B689B7EDB020B
:101D40009BB213439AB27B68DA8000BF1037BD465E
:101D500080BD00BF80B584B000AFF860B9607A6024
:101D6000BB68032B02D92548FEF7B8FB7B6803F05C
:101D70000103002B0FD0BB681A03FB68134403F563
:101D800080531B68BA681103FA680A4402F580524E
:101D900043F0040313607B6803F00203002B11D0AF
:101DA000BB681A03FB68134403F581539B8B9BB2FA
:101DB000BA681103FA680A4402F5815243F002033B
:101DC0009BB293837B6803F00403002B11D0BB68A4
:101DD0001A03FB68134403F581539B8B9BB2BA68CB
:101DE0001103FA680A4402F5815243F004039BB2DE
:101DF000938300BF1037BD4680BD00BFA45A0000CA
:101E000080B584B000AFF860B9607A60BB68032B1E
:101E100002D91F48FEF762FB7B6803F00103002B29
:101E20000FD0BB681A03FB68134403F580531B688B
:101E3000BA681103FA680A4402F5805243F08043FD
:101E400013607B6803F00203002B0FD0BB681A03FA
:101E5000FB68134403F580535B68BA681103FA68A2
:101E60000A4402F5805243F0004353607B6803F05C
:101E70000403002B08D0BB681A03FB68134403F566
:101E800080531A460123936000BF1037BD4680BDC2
:101E9000F45A000080B586B000AFF860B9607A608F
:101EA000FB68002B02D13248FEF718FB7B68032B3E
:101EB00002D93048FEF712FB20220021F86802F018
:101EC0007BFFFB687A689A61B868FFF797FB7861D7
:101ED00029497B699A007B681344FA6841F82320FA
:101EE000264A7B699B001A447B68134493F90030AF
:101EF000184602F0E8FC7B681A03BB68134403F53C
:101F000081531A46FB681A617B681A03BB68134445
:101F100003F580531A46FB689A60FB68BA68DA607A
:101F2000FB681B693B613B6900221A603B69002228
:101F30009A803B690022DA803B6900229A603B6903
:101F40000022DA603B6900221A613B6900229A8212
:101F50003B690022DA823B6900229A613B690022D8
:101F60009A833B690022DA8300BF1837BD4680BDE3
:101F7000445B0000685B000014020020AC540000C9
:101F800080B584B000AFF860B9607A60FB68002B60
:101F900002D10648FEF7A2FAFB68BA681A60FB682D
:101FA0007A685A6000BF1037BD4680BDB85B00003C
:101FB00080B584B000AF78607B68002B02D12148E7
:101FC000FEF78CFA7B681B69FB607B689B685B692A
:101FD000002B08D1FB689B8B9BB243F001039AB2A4
:101FE000FB689A8329E07B685B69002B08D17B68DA
:101FF0009B681A687B689B6842F001021A601CE0CB
:102000007B689B681B6803F00103002B15D17B687C
:102010009B681B6803F08043002B06D0FB689B8BFA
:102020009BB203F01003002B07D07B689B681A68F3
:102030007B689B6842F001021A6000BF1037BD4602
:1020400080BD00BFDC5B000090B589B000AF786058
:102050007B68002B02D16448FEF740FA7B689B68DE
:102060001B6803F08043002B14BF01230023BB76C1
:102070007B689B689B6803F00103002B07D07B689B
:102080009B689A687B689B6842F001029A607B6853
:102090005B69002B0DD17B681B68002B00F0A080D2
:1020A0007B681C687B685968BA7E00237868A04703
:1020B00096E07B681B699B697B617B681B699B8BD6
:1020C0009BB203F01003002B14BF01230023FB7409
:1020D0007B685B691A467B699B1A7B617B695B093C
:1020E000FB60BB7E002B02D0FB68FB760EE0FB683A
:1020F000002B04D0FB68DBB2013BDBB205E07B6860
:10210000DB7F5BB2DBB2013BDBB2FB767B681B7F24
:102110005AB297F91B309A4219D17B689B7FFB72A8
:102120007B68DB7FBB7297F90B2097F90A309A42E4
:1021300005D0FB7C83F00103DBB2002B04D07B686D
:102140009B7F5BB2FB611DE00023FB611AE0FB7E1D
:102150007A68127F52B29B1AFB61FB69002B06DA88
:102160007B68DB7F5BB21A46FB691344FB61BB7E75
:10217000002B07D07B689B681A687B689B6842F0DD
:1021800080421A6097F91B207B681A777B689B7FD7
:102190005BB2DAB2FB69DBB2D31ADBB25AB27B684C
:1021A0009A777B681B68002B07D07B681C687B686C
:1021B0005968FB69BA7E7868A047BB7E002B0FD0B8
:1021C0007B681B699B8B9BB203F01003002B07D02D
:1021D0007B689B681A687B689B6842F080421A6043
:1021E00000BF2437BD4690BD005C000080B582B0C2
:1021F00000AF786039600D4B1A463B681B031344EF
:1022000003F580539B6803F00103002B09D00849B4
:102210007B689A003B68134451F823301846FFF757
:1022200013FF00BF0837BD4680BD00BF0000084057
:102230001402002080B487B000AF78607B681B0C6C
:102240007B617B689BB23B617A691A4B1344FB60EC
:102250007B68B3F1FF3F28D0174BD3F8FC33164A05
:1022600023F00103C2F8FC337B69FA2B0FD1124B28
:10227000D3F8382901213B6901FA03F30E491343CE
:10228000C1F838390C4B4FF080725A6404E00122D7
:102290003B699A40FB681A60074BD3F8FC33064A47
:1022A00043F00103C2F8FC3300E000BF1C37BD4619
:1022B00080BC7047441009400010094080B584B0CC
:1022C00000AF78600023FB730023FB7309E0FB7B06
:1022D0000C4A52F823307A689A4206D0FB7B0133CD
:1022E000FB73FB7B012BF2D900E000BFFB7B012BD2
:1022F00002D90548FEF7F2F8FB7B18461037BD46B9
:1023000080BD00BF2C5C00003C5C000080B584B048
:1023100000AF78600B46FB707868FFF7CFFFF8607E
:10232000044AFB681344FA781A7000BF1037BD46A0
:1023300080BD00BF3402002080B586B000AFF860D9
:10234000B9607A60BB68002B02D14A48FEF7C6F834
:1023500000233B61F868FFF7B1FF7861464A7B696B
:1023600052F823301846FFF765FF0121F86802F0A4
:1023700008FBBB68197EBB685B7E1A46F86802F0F2
:102380003CFBFB685B6A23F0E06323F00A03BA6856
:10239000D27E920602F080621A43BB689B7E1B06C7
:1023A00003F040731A43BB681B7F5B0003F002031A
:1023B0001A43FB685A62BB689B7E012B03D0BB6843
:1023C0009B7E022B05D1FB685B6A43F08062FB6851
:1023D0005A62BB68196807F110037A68F86800F060
:1023E00099F800220021F86802F0F2FABB681B7A23
:1023F000DA07BB685B7A9B0703F080431A43BB682C
:102400009B7ADB0503F400031A43BB685B68013B5E
:10241000C3F30B031A433B69DB0603F060531A4313
:10242000BB681B7E1B0603F040731A43FB681A66E9
:102430000121F86802F080FABB68D9687B68012244
:10244000F868FDF709FFBB6819697B680222F86824
:10245000FDF702FFBB6859697B680322F868FDF746
:10246000FBFE0021F868FFF751FF00BF1837BD469B
:1024700080BD00BF745C0000345C000080B582B099
:1024800000AF78607B68002B02D11F48FEF726F86A
:1024900020220021786802F08FFC7B681B4A1A60BA
:1024A0007B6808225A607B6800221A727B680022CF
:1024B0005A727B6800229A727B681B68144AB2FBCE
:1024C000F3F27B68DA607B681B68114AB2FBF3F2B7
:1024D0007B681A617B681B680D4AB2FBF3F27B686C
:1024E0005A617B6800221A767B6800225A767B68E4
:1024F00000229A767B680022DA767B6800221A77BF
:1025000000BF0837BD4680BD9C5C000020A10700CD
:102510000065CD1D80B58EB000AFF860B9607A60FF
:102520003B603B68002B02D13848FDF7D7FFF868C5
:1025300002F03CFA034683F00103DBB2002B05D125
:10254000FB681B6903F00103002B01D0002359E055
:10255000BB68FB614FF0FF333B6207233B63FF2304
:10256000BB6200237B6200237B6334E03B6A002B69
:1025700035D00023FB6226E03B6A002B27D0244A9B
:102580007B6B13441B781A46FB6A023302FB03F38E
:102590007A68B2FBF3F3BB61FA69BB699A420FD365
:1025A000FA69BB69D31A7B613A6A7B699A4207D997
:1025B0007B693B627B6B3B63FB6ABB62BB697B6293
:1025C000FB6A0133FB62FB6AFF2BD5D900E000BF39
:1025D0007B6B01337B637B6B072BC7D900E000BFAC
:1025E000FB681A6CFB685B6C1B0E1B0203F47F43D9
:1025F0001A43BB6ADBB21A43FB681A643B683A6B46
:102600001A607B6A18463837BD4680BDC45C00003E
:10261000245C000080B586B000AFF860B960134656
:10262000FB71FB685B6C1B0EDBB27B61FB685B6C58
:102630001B0ADBB23B61FB685B6CDBB23A6913449B
:102640003B61FB79032B2AD0032B34DC012B02D016
:10265000022B13D02FE0FB681B6C23F47F02BB68B6
:102660001B0403F47F031A437B691B029BB21A43CA
:102670003B69DBB21A43FB681A641FE0FB681B6C02
:1026800023F07F42BB681B061A437B691B029BB287
:102690001A433B69DBB21A43FB681A640EE0FB681D
:1026A0001A6CBB681B029BB21A433B69DBB21A432C
:1026B000FB681A6402E00348FDF710FF00BF1837FB
:1026C000BD4680BDF05C000080B588B000AFF8600A
:1026D000B9601346FB71BB68002B02D13548FDF78A
:1026E000FDFEFB681B6EC3F30B030133FB61FB694B
:1026F0000733DB08BB61FB685B6A03F040737B61F7
:10270000BB689B68002B01D100234FE0BB681B68AE
:10271000002B05D1BB685B68002B01D1002345E08D
:10272000BB69042B0CD8BB689B68BA69B3FBF2F297
:10273000B96901FB02F29B1A002B1AD0002335E085
:10274000BB6903F00303002B06D0BB689B68BA6922
:102750009A420ED0002329E0BB689B68BA69B3FB9C
:10276000F2F2B96901FB02F29B1A002B01D000239F
:102770001CE07B69B3F1807F03D07B69B3F1007FFC
:1027800009D1BB681B68002B05D0BB685B68002BB8
:1027900001D000230AE0FB79002B06D0BB6903F0CF
:1027A0000303032B01D1002300E001231846203747
:1027B000BD4680BD085D000080B582B000AF786086
:1027C0003960786802F0F2F80346002B05D0074B19
:1027D0001B6839687868984704E0054B1B683968BE
:1027E0007868984700BF0837BD4680BD2C0200209E
:1027F0003002002080B500AF074B1B68002B02D1D0
:102800000648FDF76BFE044B1B6819460448FFF7AA
:10281000D3FF00BF80BD00BF240200202C5D00005C
:1028200000C0094080B500AF074B5B68002B02D1A8
:102830000648FDF753FE044B5B6819460448FFF752
:10284000BBFF00BF80BD00BF24020020585D000018
:1028500000D0094080B584B000AFF860B9607A60FC
:10286000FB70FB68002B02D13A48FDF737FE7B680E
:10287000042B47D07B68042B64D87B68012B03D0E2
:102880007B68022B17D05DE0FB7883F00103DBB29D
:10289000002B07D0BB68DAB2FB681A70FB68013303
:1028A000FB6052E0BB681B0EDAB2FB681A70FB6873
:1028B0000133FB6049E0FB7883F00103DBB2002BBE
:1028C0000FD0BB68DAB2FB681A70FB680133FB609B
:1028D000BB681B0ADAB2FB681A70FB680133FB6045
:1028E00033E0BB681B0CDAB2FB681A70FB6801337B
:1028F000FB60BB681B0EDAB2FB681A70FB68013321
:10290000FB6022E0BB68DAB2FB681A70FB68013337
:10291000FB60BB681B0ADAB2FB681A70FB68013304
:10292000FB60BB681B0CDAB2FB681A70FB680133F2
:10293000FB60BB681B0EDAB2FB681A70FB680133E0
:10294000FB6002E00448FDF7C9FD00BF1037BD463B
:1029500080BD00BF845D0000AC5D000080B586B026
:1029600000AFF860B9607A603B60BB68002B02D1B1
:102970001948FDF7B3FD3B6A002B02D11748FDF75C
:10298000ADFD7B6A002B02D11548FDF7A7FDA422FF
:102990000021B86802F010FAF868FFF78FFC786140
:1029A00010497B69FA6841F833200E4A7B69DB00E5
:1029B0001344BA685A60BB687A685A63BB683A685D
:1029C0009A63BB683A6ADA63BB687A6A1A6400BFC2
:1029D0001837BD4680BD00BFCC5D0000F45D00002F
:1029E0002C5E00003802002080B582B000AF786015
:1029F00001220121786802F0BAF80849786802F0EB
:102A000061F843F60371786802F069F80321786889
:102A100002F086F800BF0837BD4680BD033F0001C5
:102A200080B58AB000AFF860B9607A60BB68002BEF
:102A300002D14E48FDF752FDBB6893F83030DBB24F
:102A4000012B02D14FF4C8738BE00021F86801F02C
:102A5000F5FFF868FFF7C8FF7B6803F48003002BDD
:102A600014BF0123002387F827307B6803F4801309
:102A7000002B14BF0123002387F82630F868FFF7E6
:102A80001DFC38623A4A3B6A13441B78FB777B682B
:102A90001B0903F00F03BB61FB681B6EC3F30B0341
:102AA000DB0801337B61FA7F13461B021A44FB7F6C
:102AB0001B041A43FB7F1B061A43BB685A62F86863
:102AC00001F0E1FF03461A46BB689A70BB6897F8AD
:102AD00026201A70BB6897F827205A70BB6800221E
:102AE000DA7100220021F86802F058F8FB685B6A8E
:102AF00023F00802FB685A620121F86801F09EFF8A
:102B0000FB681B6E23F05C7297F826305B0503F4BC
:102B100000131A4397F827309B0503F480031A43E8
:102B2000BB691B0603F040731A43FB681A667B6996
:102B3000042B0CD87B69DAB2BB681A717B69DAB2F4
:102B4000BB685A717B69DAB2BB689A7108E0BB68EE
:102B500004221A71BB6804225A71BB6804229A715C
:102B6000002318462837BD4680BD00BF645E0000C4
:102B70003402002080B5AEB000AFF860B9607A6072
:102B8000BB68002B02D1AA48FDF7A8FC7B68002B8C
:102B900002D1A848FDF7A2FCBB6893F83030DBB245
:102BA000012B02D14FF4C87360E201227968F86802
:102BB000FFF78AFD034683F00103DBB2002B01D04F
:102BC000042353E2002387F8B730002387F8B63098
:102BD000F868FFF773FBC7F8AC000023C7F8B03004
:102BE000F86801F0B9FFC7F8A800F86801F0A9FF7C
:102BF000C7F8A400FB681B6EC3F30B03DB080133AB
:102C0000C7F8A03007F1540344220021184602F00F
:102C1000D3F807F1100344220021184602F0CCF843
:102C2000BB68843323F01F03C7F89C30BB68643350
:102C300023F01F03C7F89830BB68012283F83020C7
:102C40007B681A68BB689A607B685A68BB68DA6000
:102C50007B689A68BB681A617B689A68BB685A612E
:102C60007B689A68BB681A627B689A68D7F8A0305C
:102C7000B2FBF3F3D7F8A0200332920803FB02F271
:102C8000BB689A61BB689A69BB68DA61BB6800225D
:102C9000DA71D7F8A030042B20D97B689B6803F049
:102CA0000303002B1AD07B689B68DBB203F003039D
:102CB00087F8B630BB6897F8B6209A71012387F879
:102CC000B730BB689B695A1EBB689A61BB68DB69F9
:102CD0005A1EBB68DA61BB680122DA71BB68D86B27
:102CE000D7F8AC30DB00544A13441A465349FFF777
:102CF00047F9BB68DB6BDA68BB68DB6B9B6919461D
:102D00001046FEF757FDBB68DB68002B06D0BB689A
:102D1000DB68BB650123A7F8603005E0BB6828339A
:102D2000BB650023A7F86030002387F85D300023DF
:102D3000C7F8B030BB685B79DBB2042B22D0042B20
:102D400026DC012B02D0022B0ED021E0002387F8D5
:102D50005C3001237B66BB685B78DBB2002B1FD045
:102D60000323C7F8B0301BE0012387F85C3002234F
:102D70007B66BB685B78DBB2002B13D00223C7F8FD
:102D8000B0300FE0022387F85C3004237B660AE052
:102D9000002387F85C3001237B662948FDF79EFB02
:102DA00000BF00E000BFD7F8A820D7F8B030134428
:102DB0007B650023A7F85E30BB68DB69BB667B6E72
:102DC000DAB2BB6883F83120BB68DB6BD868BB68BC
:102DD000DB6B996907F154020023FEF70BFDBB681A
:102DE000DB6BD868BB68DB6B9B6902221946FEF778
:102DF000B1FFBB681B6CDA68BB681B6C9B6919462A
:102E00001046FEF7D7FC97F8B730002B74D0BB689C
:102E10009B68002B16D07B681A687B68996897F8C6
:102E2000B630CB1A13443B6101237B830FE000BF14
:102E30008C5E0000B45E0000380200207D3000008F
:102E4000DC5E0000BB6824333B6100237B830023EE
:102E5000BB8300233B760023C7F8B03097F8B63029
:102E6000012B02D0022B0DD019E000237B76012329
:102E70003B62BB685B78DBB2002B17D00323C7F83B
:102E8000B03013E001237B7602233B62BB685B78A2
:102E9000DBB2002B0CD00223C7F8B03008E00023CF
:102EA0007B7601233B627348FDF718FB00BF00E00F
:102EB00000BFD7F8A420D7F8B03013447B610123BA
:102EC0007B62D7F89800FEF7FBFCBB681B78DBB28F
:102ED000002B09D007F11003D7F89C201946D7F82A
:102EE0009800FEF729FD07E007F1100300221946BC
:102EF000D7F89800FEF720FDBB681B78DBB2002BEB
:102F000023D0FB681B6E23F44012BB68DA62BB68F7
:102F10002C333B6100237B83FB6860337B610023A0
:102F2000BB8302233B7602237B7604233B6201238F
:102F30007B62D7F89C00FEF7C3FC07F11003002268
:102F40001946D7F89C00FEF7F7FCBB689B68002B7E
:102F500005D0BB689B683B6101237B8304E0BB68B1
:102F600024333B6100237B830023BB8300233B7618
:102F70000023C7F8B030BB685B79DBB2042B20D0EC
:102F8000042B23DC012B02D0022B0DD01EE00023EA
:102F90007B7601233B62BB685B78DBB2002B1CD0E5
:102FA0000323C7F8B03018E001237B7602233B628D
:102FB000BB685B78DBB2002B11D00223C7F8B030BE
:102FC0000DE002237B7604233B6209E000237B763D
:102FD00001233B622848FDF781FA00BF00E000BFF3
:102FE000D7F8A420D7F8B03013447B61BB689B6945
:102FF0007B6297F8B730002B0CD0BB681B6CD8688D
:10300000BB681B6C996907F11002D7F89830FEF77E
:10301000F1FB1CE0BB681B78DBB2002B0CD0BB685B
:103020001B6CD868BB681B6C996907F11002D7F854
:103030009C30FEF7DFFB0AE0BB681B6CD868BB68FE
:103040001B6C996907F110020023FEF7D3FBBB68E4
:103050001B6C1846FEF7ACFFBB68DB6B1846FEF72F
:10306000A7FF0321F86801F04BFD00231846B8378D
:10307000BD4680BDFC5E00001C5F000090B589B0BD
:1030800000AFF860B9603B601346FB71FB68002B32
:1030900002D12E48FDF722FABB68002B02D12C4842
:1030A000FDF71CFABB68FB61FB695B685B69BB6190
:1030B000FB695B689B79FB75FB695B685B78BB753B
:1030C000FB691B680321184601F02AFDFB695B6858
:1030D000DB79DBB2002B1FD000BFFB691B681846F1
:1030E00001F0E2FC0346002BF7D0FB691B68184691
:1030F00001F069FD3861FB695B68DB68002B0BD070
:10310000FB695B68DA68FB7DB969CB1AD018FA7D78
:10311000BB7D3969FFF79EFBFB695B68002283F882
:103120003020FB695B685B6B002B0BD0FB695B6835
:103130005C6BFB691868FB695968FB695B689B6B92
:103140000022A04700BF2437BD4690BD3C5F000071
:10315000685F000080B487B000AF78607B681B0CAC
:103160007B617B689BB23B617A691A4B1344FB60BD
:103170007B68B3F1FF3F28D0174BD3F8FC33164AD6
:1031800023F00103C2F8FC337B69FA2B0FD1124BF9
:10319000D3F8382901213B6901FA03F30E4913439F
:1031A000C1F838390C4B4FF080725A6404E00122A8
:1031B0003B699A40FB681A60074BD3F8FC33064A18
:1031C00043F00103C2F8FC3300E000BF1C37BD46EA
:1031D00080BC7047441009400010094080B584B09D
:1031E00000AF78600023FB600BE00D4AFB6852F8EB
:1031F00023307A689A4201D1FB680CE0FB68013306
:10320000FB60FB68022BF0D9FB68022B02D9054852
:10321000FDF764F9FB6818461037BD4680BD00BF56
:10322000A05F0000C05F000080B58CB000AFF86008
:10323000B9607A60BB68002B02D17B48FDF74EF97C
:10324000BB681B68002B02D17848FDF747F9BB68C3
:103250001B7A032B02D97648FDF740F9BB685B7AED
:10326000032B02D97348FDF739F90023FB62BB68D1
:103270001B68FB61002387F823300023FB840423B1
:1032800087F8223049E07A6813469B0013445B00BC
:103290001946BB681B6897F8222002FB03F3B1FBB9
:1032A000F3F30533644AA2FB0323DB08BB84BB8C26
:1032B000002B02D10123BB8406E0BB8CB3F5005F79
:1032C00002D341F6FF73BB8497F82230BA8C02FB1D
:1032D00003F37A68B2FBF3F37B61BB681B687A691E
:1032E0009A4204D9BB681B687A69D31A03E0BB68A9
:1032F0001A687B69D31A3B613A69FB699A4207D81D
:103300003B69FB6197F8223087F82330BB8CFB8444
:1033100097F82230013387F8223097F82230202B9B
:10332000B1D9BB681B68454AA2FB03235A0913465F
:103330005B001344FA699A4203D940F22153FB62BD
:1033400006E1F868FFF74AFFB8613D4ABB6952F8E9
:1033500023301846FFF7FEFEF868FFF73FFF0346ED
:10336000384A32F81330184601F038FCF86801F09A
:1033700042FCFB681B69BB6297F82330032B07D91B
:1033800097F82330072B03D8BB6A43F40033BB62A2
:10339000BB6A23F0F853BB6297F82330013B1B064E
:1033A00003F0F853BA6A1343BB62BB6A23F4FF53BA
:1033B00023F01F03BB62FB8CC3F30C02BB6A1A43EE
:1033C000FB681A61FB681B6923F00052FB681A61F5
:1033D000FB689B6923F4E26323F00703BB62BB68CD
:1033E0001B791A46BB68DB7B1B0203F4E0631A43BC
:1033F000BB689B7B9B0003F004031343BA6A13432F
:10340000BB62BB685B79012B1ED1BB681B79002BAB
:1034100004D0BB6A23F40063BB621DE0BB6A43F4C3
:103420000063BB6218E000BFF85F00001C60000092
:103430004C600000A8600000CDCCCCCC1F85EB51C7
:10344000AC5F0000B85F0000BB681B79002B03D0A5
:10345000BB6A43F01003BB62FB68BA6A9A61FB68FF
:103460001B6923F40053BB62BB68DB795B0303F485
:103470000052BB6A1A43FB681A61BB685B7A1B0483
:10348000BA68127A1A43FB68DA62FB689B6A43F0F7
:103490008802FB689A62FB689B6A43F44042FB68BF
:1034A0009A622E4BBB62BB6A43F00043BB62BB6AAD
:1034B00043F44043BB62FB685A6ABB685B7B1B01F9
:1034C00003F01001BB681B7B5B0103F020030B437F
:1034D0001A43FB685A62BB689B7A002B05D0FB68D5
:1034E0005B6A43F00802FB685A62BB68DB7A002B18
:1034F00005D0FB685B6A43F00102FB685A62BB6857
:103500009B79002B04D0BB6A43F00053BB6203E0FD
:10351000BB6A23F00053BB62FB685A69BB6A1A435B
:10352000FB685A61FB689B69BB62BB681B7C002B14
:1035300003D0BB6A43F40023BB62BB685B7C002BF7
:1035400003D0BB6A43F48023BB62FB68BA6A9A610A
:10355000FB6A18463037BD4680BD00BF00001F40E3
:1035600080B582B000AF78607B68002B02D11D4827
:10357000FCF7B4FF14220021786801F01DFC7B6881
:103580004FF4E1321A607B6800221A717B680022D6
:103590005A717B6800229A717B680022DA717B681D
:1035A00000221A727B6800225A727B6800229A728B
:1035B0007B680022DA727B6800225A737B680022E3
:1035C0001A737B6800229A737B680022DA737B6827
:1035D00000221A747B6800225A7400BF0837BD4667
:1035E00080BD00BF0461000080B485B000AF78608A
:1035F0007B685B69FB607B689B6A1B0C03F0C30301
:10360000FA681343FB60FA68044B1340FB60FB68E5
:1036100018461437BD4680BC704700BFC3C0FFC109
:1036200080B584B000AF786039603A681A4B1340B7
:103630003B603B6803F00303002B10D07B689B6A60
:10364000BB60BB6823F47033BB603B681B0403F4AE
:103650004033BA681343BB607B68BA689A627B6880
:103660005B6903F078533A681343BB607B68BA68C0
:103670005A617868FFF7B8FF02463B681340002B99
:1036800003D040F21A53FB6001E00023FB60FB68AB
:1036900018461037BD4680BD03C01FC080B586B038
:1036A00000AFF860B9607A60BB68002B02D11448A3
:1036B000FCF714FFBB687B617B683B6111E000BFD6
:1036C000FB685B6903F40003002BF9D07B691B786E
:1036D0001A46FB68DA617B6901337B613B69013B18
:1036E0003B613B69002BEAD100BFFB685B6903F4D7
:1036F0008003002BF9D0002318461837BD4680BD43
:103700002861000080B58AB000AFF860B9607A60C7
:10371000BB68002B02D15248FCF7E0FE00237B621D
:10372000BB683B62FB689B69FB61FB6903F4006358
:10373000002B09D1FB6903F01003002B06D1FB69B4
:1037400003F00203002B01D0012300E00023FB76ED
:10375000FB7E03F00103FB7676E0F868FFF744FF99
:1037600078617B6903F40023002B0ED04FF4002115
:10377000F868FFF755FF0346002B02D140F21D53B6
:1037800001E040F21A537B6244E07B6903F480332A
:10379000002B0DD04FF48031F868FFF741FF03464E
:1037A000002B02D14FF4A46301E040F21A537B6274
:1037B0007B6903F40033002B0DD04FF40031F8681F
:1037C000FFF72EFF0346002B02D140F21F5301E00A
:1037D00040F21A537B627B6903F48023002B0DD0E7
:1037E0004FF48021F868FFF71BFF0346002B02D13E
:1037F00040F21E5301E040F21A537B627B6A002BB9
:1038000007D1FB68DB6A1B0E03F00703002BA4D073
:1038100000E000BF7B6A002B1CD1FB7E002B0BD08D
:10382000FB68DB69DBB203F07F03DAB23B6A1A7034
:103830003B6A01333B6207E0FB68DB69DAB23B6A53
:103840001A703B6A01333B627B685A1E7A60002B18
:10385000D7D100E000BF7B6A18462837BD4680BD3F
:103860004C61000080B500AF044B1B68044A12682D
:1038700011460448984700BF80BD00BF5402002095
:103880004802002000F0094080B500AF044B5B689F
:10389000044A526811460448984700BF80BD00BFE3
:1038A000540200204802002000000A4080B500AF0A
:1038B000044B9B68044A926811460448984700BF2D
:1038C00080BD00BF540200204802002000100A40C2
:1038D00080B586B000AF0346FB80FB881B0A9BB215
:1038E0003B61FB88DBB2FB600122FB6802FA03F359
:1038F000BB60204B7B61FB884FF6FF72934234D054
:10390000FB681F2B02D91C48FCF7E8FD3B69012B23
:1039100002D91A48FCF7E2FD164BD3F8FC33154ADE
:1039200023F00103C2F8FC333B69002B05D1114A97
:10393000BB6853600F4B7B6107E03B69012B04D1EF
:103940000C4ABB6853610E4B7B6100BF7B691A68F0
:10395000BB681340002BF9D0064BD3F8FC33054A63
:1039600043F00103C2F8FC3300E000BF1837BD4646
:1039700080BD00BF00100940706100009061000030
:103980001010094080B586B000AF0346FB80FB886D
:103990001B0A9BB23B61FB88DBB2FB600122FB6828
:1039A00002FA03F3BB601A4B7B61FB681F2B02D941
:1039B0001848FCF793FD164BD3F8FC33144A23F058
:1039C0000103C2F8FC333B69002B05D1104ABB68E8
:1039D00093600F4B7B6107E03B69012B04D10C4ADC
:1039E000BB6893610C4B7B6100BF7B691A68BB6845
:1039F0001340BA689A42F8D0054BD3F8FC33044A16
:103A000043F00103C2F8FC3300BF1837BD4680BD48
:103A100000100940B06100001010094080B584B06A
:103A200000AF786039603B68002B02D11348FCF787
:103A300055FD0023FB603B681B7803F00303FA6825
:103A40001343FB607B68FA681A643B685B78002B61
:103A500010D07B681B6C43F080427B681A6400BF07
:103A60007B681B6C002BFBDA7B681B6C23F08042AD
:103A70007B681A6400BF1037BD4680BDD06100006E
:103A800090B583B000AF786039603B68002B02D1FD
:103A90002948FCF723FD7B681B6903F00103002B19
:103AA00002D042F6A00342E03B685B78002B10D1C5
:103AB000786801F0F6F80346002B0AD13B681C78C1
:103AC000786801F0DEF803469C4202D042F6A70374
:103AD0002DE03B685B78002B11D1786801F0E1F8AC
:103AE0000346012B0BD13B681B781946786801F01F
:103AF000E8F83B685B781946786801F0FBF83B68AA
:103B00005B78012B0BD13B685B781946786801F034
:103B1000F1F83B681B781946786801F0D2F800BFCD
:103B20007B681B6903F00103002BF9D100231846C1
:103B30000C37BD4690BD00BFF061000080B500AFFE
:103B4000144BD3F88830134A43F00F03C2F888307F
:103B5000104BD3F88C300F4A43F4406343F0030317
:103B6000C2F88C300B4B0C4A9A600C4BD3F82438BB
:103B70000A4A43F48073C2F82438084BD3F8243837
:103B8000064A23F00103C2F8243801F0E2F800BF2E
:103B900080BD00BF00ED00E0000000000010094003
:103BA00080B58AB000AF786039600023FB8407F1EC
:103BB0000C031846FFF7D4FC3B685B68FB603B686E
:103BC0001B7A3B743B685B7AFB743B689B7A002BE7
:103BD00014BF01230023DBB27B773B68DB7A002B29
:103BE00014BF01230023DBB23B773B68DB7B002B58
:103BF00008D03B68DB7B042B28BF0423DBB2013BEE
:103C0000DBB23B753B681B7C002B08D03B681B7C00
:103C1000042B28BF0423DBB2013BDBB27B753B687E
:103C20001B7B002B14BF01230023DBB2BB753B6859
:103C30005B7B002B14BF01230023DBB2FB75012348
:103C4000BB760123FB763B689B7B1A460B4B53F8F4
:103C500022003B681A6807F10C031946FFF7E4FAE3
:103C600038623B6A002B04D0386A01F078F80346CA
:103C7000FB84FB8C18462837BD4680BD10620000CF
:103C800080B584B000AF786039607B68002B02D1CA
:103C90001748FCF723FC3B68002B02D11548FCF7C2
:103CA0001DFC3B689B7B022B02D91348FCF716FCDA
:103CB0003B689B7B1A46114B53F82230002B02D1F4
:103CC0000F48FCF70BFC39687868FFF769FF03467B
:103CD000FB81FB89002B05D17B68BB603B689A7B2D
:103CE000BB681A70FB8918461037BD4680BD00BFFF
:103CF0001C62000048620000786200001062000050
:103D0000E462000080B586B000AFF860B9607A6008
:103D1000FB68002B02D11248FCF7E0FBBB68002BCC
:103D200002D11048FCF7DAFB7B68002B02D10E4869
:103D3000FCF7D4FBFB687B617B691B781A460B4B55
:103D400053F822307A68B9681846FFF7DBFC38610F
:103D5000386901F004F8034618461837BD4680BD9F
:103D6000346300006063000088630000106200009C
:103D700080B586B000AFF860B9607A60FB68002B50
:103D800002D11048FCF7AAFBBB68002B02D10E48F9
:103D9000FCF7A4FB7B68002B02D10C48FCF79EFBD0
:103DA000FB687B617B691B781A46094B53F822300C
:103DB0007A68B9681846FFF771FC0023184618376F
:103DC000BD4680BDB0630000DC63000004640000F9
:103DD0001062000080B500AF0121E420FDF7E8F893
:103DE0004FF4600000F04AFD132000F019FF044B6F
:103DF00001224FF4E1310020FCF77CFB00BF80BDC5
:103E0000001BB70080B584B000AFFDF79DFAF860E5
:103E1000FB682B4A93421AD802233B7201237B7220
:103E200007F1080319462748FFF72AFE264B9B682F
:103E300023F00F03244A43F00203936002233B71F3
:103E400001237B713B1D19461E48FFF7E7FD1C4807
:103E5000FDF7ECF8FDF764F91C4800F00FFDFB6876
:103E6000174A93421AD9184B9B6823F00F03164A3E
:103E700043F00203936002233B7101237B713B1DDE
:103E800019461048FFF7CAFD02233B7201237B72DB
:103E900007F1080319460B48FFF7F2FD01214FF423
:103EA0006070FDF785F801214FF4AA70FDF780F8E6
:103EB000074B034A1A6000BF1037BD4680BD00BFE4
:103EC00000D8B80500000940005009400300000276
:103ED0000800002080B487B000AF78607B681B0CBE
:103EE0007B617B689BB23B617A691A4B1344FB6030
:103EF0007B68B3F1FF3F28D0174BD3F8FC33164A49
:103F000023F00103C2F8FC337B69FA2B0FD1124B6B
:103F1000D3F8382901213B6901FA03F30E49134311
:103F2000C1F838390C4B4FF080725A6404E001221A
:103F30003B699A40FB681A60074BD3F8FC33064A8A
:103F400043F00103C2F8FC3300E000BF1C37BD465C
:103F500080BC7047441009400010094080B586B00D
:103F600000AFF860B9607A607B68002B02D1084826
:103F7000FCF7B4FABB6820339B00FA6813447B61FA
:103F80007B697A6812881A8000BF1837BD4680BDE9
:103F90002C64000080B58AB000AF1D20FFF79AFFA7
:103FA0001E20FFF797FF1F20FFF794FF132000F05C
:103FB000EFFE1D2000F0ECFE112000F0E9FE1E20B7
:103FC00000F0E6FE122000F0E3FE1F2000F0E0FE0D
:103FD0000023BB8497F8243043F0030387F8243090
:103FE00097F82530022262F3030387F8253097F80B
:103FF000253043F0100387F8253007F124031A46D3
:1040000002215848FFF7AAFF00233B8497F820308D
:1040100043F0030387F8203097F82130022262F33F
:10402000030387F8213097F8213043F0100387F815
:10403000213007F120031A4603214A48FFF78EFF7B
:104040000023BB837B7F022262F303037B777B7FAA
:1040500043F010037B7707F11C031A460021424806
:10406000FFF77CFF00233B837B7E022262F3030386
:104070007B767B7E43F010037B7607F118031A46AC
:1040800001213948FFF76AFF0023BB827B7D0222B2
:1040900062F303037B757B7D43F010037B7507F1AF
:1040A00014031A4602213048FFF758FF00233B82D1
:1040B0007B7C022262F303037B747B7C43F010035E
:1040C0007B7407F110031A4603212748FFF746FFC8
:1040D0000023BB817B7B022262F303037B737B7B28
:1040E00043F010037B7307F10C031A460C211F48A1
:1040F000FFF734FF00233B817B7A022262F3030344
:104100007B727B7A43F010037B7207F108031A4637
:104110000D211648FFF722FF0023BB807B79022286
:1041200062F303037B717B7943F010037B713B1DCA
:104130001A4610210D48FFF711FF00233B807B78C2
:10414000022262F303037B707B7843F010037B70E1
:104150003B461A4606210548FFF700FF00BF2837F7
:10416000BD4680BD00C00B4000D00B4000E00B40BE
:1041700010B5174A1749002000F09EFE4FF48073D7
:104180004FF480620021124800F030FE124A1349B9
:10419000012000F091FE4FF480734FF48062002103
:1041A0000D4800F023FE0E4B1B68022B0EDD0D4A5E
:1041B0000A49022000F080FEBDE810404FF48073F1
:1041C0004FF480620021074800F010BE10BD00BF10
:1041D00064020020AC640000A0020020AE64000075
:1041E000A8640000DC0200202DE9F041D56880467B
:1041F000EB020E461446576905D5384600F0E6FF37
:1042000045F01005A061124B2B408BB13846A169D7
:1042100000F0E5FF002806DAE3684FF0FF3043F0D6
:104220008003E36011E025F4003525F01005E5601A
:1042300032464146384600F0D8FF20F00043F61AD7
:10424000A3693344A3610028E6D1BDE8F08100BF33
:1042500010000200F8B5044638B905460A4B0B4E6B
:104260001F68A74205DC2846F8BDBDE8F84000F00D
:10427000B6BE304600F0B3FE002818BF4FF0FF3541
:1042800001343C36EDE700BFA86400006402002062
:104290002DE9F843C6683B4B044633400D46904633
:1042A000D0F814906BB1484600F093FF074640B930
:1042B000B8F1010F09D0B8F1020F31D0B8F1000FF9
:1042C00007D002273846BDE8F883204600F05CF8A6
:1042D0000544002DF5DBB30404D52368E26A9A4255
:1042E00038BFE362A069A8420EDC2368E26A934209
:1042F00038BF134622691918891AA94204DB216BB9
:1043000000EB010CAC452CDC0023C4E9013346F082
:104310002006A56226F4032626F04006E660D1E7D3
:10432000484600F053FF0028E26804DA42F08002B9
:104330000127E260C6E72168A369D4F82CC0614573
:104340002CBF5B18634421699206A3EB010303D5DC
:10435000A26A9342B8BF13468342ACBFED182D1832
:10436000B7E72D1AB00744BF691AA160F10744BF2F
:104370009B1AEB1A2A4448BF6360226026F020068D
:10438000C8E700BF03001000C3689A0705D12122C7
:104390000D4B4FF0FF301A60704703F020021B03F3
:1043A00009D512B1806A01387047036882690069D3
:1043B0001344181AF7E70AB1806A704703688269E4
:1043C00000691344181A7047600200200FB480B5CA
:1043D00082B000AF00237B6007F114033B603968B3
:1043E0003869FCF7CBF878607B6818460837BD461B
:1043F000BDE8804004B0704780B586B000AFB960BA
:104400007A603B600346FB73BB687B610BE0FA7B21
:104410003B6A104698473B681B685A1C3B681A6009
:104420007B6901337B617A697B689A42EFDB00BF6D
:1044300000BF1837BD4680BD80B48FB000AFF860B4
:10444000B9607A603B600023FB62FB68BB62BB6AB9
:104450005A1CBA6200221A7000237B6000237B6220
:1044600000233B620023FB6100237B630023BB61CD
:1044700000233B6300237B61BB681B687B637B6B12
:10448000002B30D1BB6A30221A70FB6A0133FB6209
:10449000FB6A2CE03B687A6BB2FBF3F3BB613B68D1
:1044A000BA6902FB03F37A6BD31A3B633B6B092BAC
:1044B00003D83B6B30333B630AE097F84030002B66
:1044C00001D0412200E061223B6B13440A3B3B6375
:1044D000BB697B63BB6A5A1CBA623A6BD2B21A7070
:1044E000FB6A0133FB627B6B002BD3D1FB6A18465E
:1044F0003C37BD4680BC704708B5FBF7AAFE08BD37
:1045000008B5FBF7A6FE08BD08B500F0F5F908BD33
:1045100008B500F0F9F908BD08B500F0FDF908BDCF
:1045200008B500F001FA08BD08B5FBF792FE08BD1A
:1045300008B5FBF78EFE08BD08B5FBF78AFE08BD7F
:1045400008B5FBF786FE08BD08B5FBF782FE08BD7F
:1045500008B5FBF77EFE08BD08B5FBF77AFE08BD7F
:1045600008B5FBF776FE08BD08B5FBF772FE08BD7F
:1045700008B5FBF76EFE08BD08B5FBF76AFE08BD7F
:1045800008B5FBF766FE08BD08B5FBF762FE08BD7F
:1045900008B5FBF75EFE08BD08B5FBF75AFE08BD7F
:1045A00008B5FBF756FE08BD08B5FBF752FE08BD7F
:1045B00008B5FBF74EFE08BD08B5FBF74AFE08BD7F
:1045C00008B5FBF746FE08BD08B5FBF742FE08BD7F
:1045D00008B5FBF73EFE08BD08B5FEF70BF908BDB0
:1045E00008B5FEF71FF908BD08B5FBF732FE08BD98
:1045F00008B5FFF737F908BD08B5FFF745F908BD5D
:1046000008B5FFF753F908BD08B5FBF722FE08BD52
:1046100008B5FBF71EFE08BD08B5FBF71AFE08BD7E
:1046200008B5FBF716FE08BD08B5FBF712FE08BD7E
:1046300008B5FBF70EFE08BD08B5FBF70AFE08BD7E
:1046400008B5FBF706FE08BD08B5FBF702FE08BD7E
:1046500008B5FBF7FEFD08BD08B5FBF7FAFD08BD80
:1046600008B5FBF7F6FD08BD08B5FBF7F2FD08BD80
:1046700008B5FBF7EEFD08BD08B5FBF7EAFD08BD80
:1046800008B5FBF7E6FD08BD08B5FBF7E2FD08BD80
:1046900008B5FBF7DEFD08BD08B5FBF7DAFD08BD80
:1046A00008B5FBF7D6FD08BD08B5FBF7D2FD08BD80
:1046B00008B5FBF7CEFD08BD08B5FBF7CAFD08BD80
:1046C00008B5FBF7C6FD08BD08B5FBF7C2FD08BD80
:1046D00008B5FBF7BEFD08BD08B5FBF7BAFD08BD80
:1046E00008B5FBF7B6FD08BD08B5FBF7B2FD08BD80
:1046F00008B5FBF7AEFD08BD08B5FBF7AAFD08BD80
:1047000008B5FBF7A6FD08BD08B5FBF7A2FD08BD7F
:1047100008B5FBF79EFD08BD08B5FBF79AFD08BD7F
:1047200008B5FBF796FD08BD08B5FBF792FD08BD7F
:1047300008B5FBF78EFD08BD08B5FBF78AFD08BD7F
:1047400008B5FBF786FD08BD08B5FBF782FD08BD7F
:1047500004207146084202D0EFF3098001E0EFF334
:10476000088081690A884BF6AB639A4200D0FEE765
:10477000023181610168012901D0002100E020217E
:104780000160704700BF80B485B000AF78600B4611
:10479000FB700023FB7314E0FA78FB7BC3F1070383
:1047A00042FA03F303F00103002B01D0F02100E0F3
:1047B000C021FB7B7A6813440A461A70FB7B0133E5
:1047C000FB73FB7B072BE7D900BF00BF1437BD4647
:1047D00080BC704780B586B000AFF860B9607A6081
:1047E00000237B610023FB742EE07A687B69D0187C
:1047F000FA7C13465B001344FA6813445B7819464D
:10480000FFF7C1FF7B6908337A68D018FA7C13463A
:104810005B001344FA6813441B781946FFF7B3FF93
:104820007B6910337A68D018FA7C13465B00134416
:10483000FA6813449B781946FFF7A5FF7B69183384
:104840007B61FB7C0133FB74FB7CBA689A42CCD859
:1048500000BF00BF1837BD4680BD80B483B000AF35
:1048600078607B6803F08043002B01D0012300E0D7
:10487000002318460C37BD4680BC704780B584B015
:1048800000AF78607B681B0CFB607B689BB2BB60F1
:104890007B68B3F1FF3F05D0FB689BB2B96818464F
:1048A000FCF73CFB00BF1037BD4680BD80B582B031
:1048B00000AF0346FB80FB881846FFF709F800BFEE
:1048C0000837BD4680BD80B584B000AF0346FB719C
:1048D0000023FB6097F9073013F1800F02D1012309
:1048E000FB6004E097F907301846FCF79BFDFB6876
:1048F00018461037BD4680BD80B500AF00210020AE
:10490000FDF774FC00BF80BD80B500AF0121002021
:10491000FDF76CFC00BF80BD80B500AF0221002018
:10492000FDF764FC00BF80BD80B500AF032100200F
:10493000FDF75CFC00BF80BD80B483B000AF786041
:104940000B46FB70FB78002B06D07B681B6943F09D
:1049500001027B681A6105E07B681B6923F0010294
:104960007B681A617B685B6903F48053002B03D07A
:104970007B684FF480525A6100BF0C37BD4680BC43
:10498000704780B483B000AF78600B46FB707B68E3
:104990005B6A23F00102FB7803F001031A437B6892
:1049A0005A6200BF0C37BD4680BC704780B483B0EC
:1049B00000AF78607B685B6A03F00103002B14BFD3
:1049C00001230023DBB218460C37BD4680BC70477C
:1049D00080B485B000AFF860B9607A60BB6803F05E
:1049E00003027B681B0403F440331A43FB689A6597
:1049F00000BF1437BD4680BC704780B485B000AF9F
:104A000078600B46FB701346BB700023FB607B682D
:104A10005A6AFB780833012101FA03F3DB431340A0
:104A2000FB60BA78FB7808339A40FB681A437B68CE
:104A30005A6200BF1437BD4680BC704780B483B053
:104A400000AF78600B46FB70FB78002B06D07B68CC
:104A50001B6943F001027B681A6105E07B681B69F2
:104A600023F001027B681A617B685B6903F4805361
:104A7000002B03D07B684FF480525A6100BF0C3783
:104A8000BD4680BC704780B483B000AF78607B685F
:104A90005B681B0ADBB2012202FA03F3DBB21846A1
:104AA0000C37BD4680BC704780B483B000AF7860DF
:104AB0007B68DB6D1B0C03F0070318460C37BD4603
:104AC00080BC704780B483B000AF786039607B6889
:104AD0003A685A6100BF0C37BD4680BC704780B44D
:104AE00083B000AF786039607B689A693B68DB43CC
:104AF0001A407B689A6100BF0C37BD4680BC704786
:104B000080B483B000AF786039607B68DA693B6855
:104B10001A437B68DA6100BF0C37BD4680BC704722
:104B200080B483B000AF786039607B68DA693B6835
:104B3000DB431A407B68DA6100BF0C37BD4680BC9E
:104B4000704780B483B000AF78607B6864331846E8
:104B50000C37BD4680BC704780B483B000AF78602E
:104B60007B68743318460C37BD4680BC704780B4F0
:104B700083B000AF78600B46FB701346BB707B6858
:104B80001A69FB781902BB785B020B431A437B68F6
:104B90001A6100BF0C37BD4680BC704780B485B039
:104BA00000AFF860B9607A60BB6803F003027B680D
:104BB0001B0403F440331A43FB689A6500BF1437A3
:104BC000BD4680BC704780B483B000AF78607B681E
:104BD0005B6F18460C37BD4680BC704780B582B00D
:104BE00000AF0346FB80FB881846FEF771FE00BF4E
:104BF0000837BD4680BD80B483B000AF78607B6865
:104C00009B6843F002027B689A607B689B6823F094
:104C100002027B689A6000BF0C37BD4680BC7047BB
:104C200080B582B000AF0346FB80FB881846FEF7D4
:104C3000A9FEFB881846FEF74BFE00BF0837BD46AD
:104C400080BD80B483B000AF78607B68D3F800315A
:104C50001B0D03F00303DBB218460C37BD4680BCC6
:104C6000704780B485B000AF78607B68D3F80031BE
:104C700003F09853FB60FB6818461437BD4680BCB0
:104C8000704780B483B000AF78607B68D3F80031A0
:104C90009B0803F00303DBB218460C37BD4680BC0B
:104CA000704780B483B000AF78607B68D3F8003180
:104CB000DBB203F00103DBB218460C37BD4680BC03
:104CC000704780B483B000AF78600B46FB707B68A0
:104CD000D3F8003123F00C02FB789B0003F00C03A7
:104CE0001A437B68C3F80021002318460C37BD46E1
:104CF00080BC704780B582B000AF78600B46FB7017
:104D0000FB78002B08D17868FFF7ABFF0346002B38
:104D100002D042F6A50318E0FB78012B08D1786891
:104D2000FFF78FFF0346002B02D142F6A6030CE0EB
:104D30007B68D3F8003123F00102FB7803F0010314
:104D40001A437B68C3F80021002318460837BD4684
:104D500080BD80B400AF00BFBD4680BC704780B44A
:104D600085B000AF78607B68002B02D10023FB8107
:104D700002E042F6AF73FB81FB8918461437BD464B
:104D800080BC704780B500AFFFF73CF800BF80BD26
:104D900080B582B000AF0346FB80FB881846FEF763
:104DA00097FD00BF0837BD4680BD08B5FFF7E0F9A5
:104DB000BDE80840FBF71ABF00F0ECB9A8B14FF00E
:104DC000805340F80C3C50F8042C72B11368B3F1D6
:104DD000805F0AD150F8083C516803330B4440F817
:104DE000083C936840F8043CEDE7704770B5C46830
:104DF000A50708D0B2F5007F11D0B2F5806F04D0BE
:104E0000B2F5807F0BD0012008E0012300F12401DE
:104E1000144301610160C361C460002070BD6FF084
:104E20007F455E1EAE42F3D3EDE7034610B59A0709
:104E30001C4615D1234654F8042BA2F1013121EA76
:104E4000020111F0803FF5D0D1B299B112F47F4F39
:104E50000ED012F47F0F14BF23460333013003E05A
:104E60001A4612F8011B09B9181A10BD1346DEE7DD
:104E70000233F3E70133F1E7C36810B523F02003F1
:104E80008269C360836A04469A420ED000F048F8F3
:104E9000E36823F4405323F0100343F01003E3606E
:104EA000A36AA3612369E3622360E36823F4804378
:104EB00023F04003E36010BD70B50D460646104672
:104EC000144600F056F82B78722B17D0772B18D099
:104ED000612B23D1082348F2020215F8011F2B2968
:104EE00012D0622915D01B07E260666104D5022248
:104EF00000212046FFF7CCF9204670BD0023012297
:104F0000EBE704230222E8E742F0030243F0020346
:104F1000E3E742F0040243F00103DEE70024EBE79D
:104F200038B50446C36805690168C26A23F40020E5
:104F3000E06003F08200022802D04FF0FF3038BD5D
:104F4000DB030CD5914238BF11468D4209D10023B5
:104F5000A360E368E56223F480332560E36000200A
:104F6000EDE722462846491BFFF73EF90028EED020
:104F7000E3E7F0B5D0E90467C4680546A10789B046
:104F800020D0220716D4FFF765F9384600F01BF948
:104F9000230502D53046FFF711FFA40DA40514F137
:104FA000A54F07D120226846296A00F01BF9684600
:104FB00000F00BF83C2200212846FFF7FDFE002000
:104FC00009B0F0BD4FF0FF30FAE710B50446FFF727
:104FD0002CFF01462046BDE8104000F0FDB8C36834
:104FE00070B513F00306044611D09B0611D5856AEF
:104FF000FFF742FFE368204623F44053E360FFF7E6
:105000008FFF0022064629462046FFF741F9304629
:1050100070BD836905681D440369ED1AEAE75FF016
:10502000000C30B51C0022D112006FD0914206D383
:1050300005460846002100F06FF80446284600F0B7
:105040006BF80A462146BDE830401CF0404F08BFCF
:10505000704703D54942404261F100015FEA8C0C80
:1050600038BF70475B42524263F10003704742D43D
:105070001C0C04BF1B040CF1100C13F07F4F04BF79
:105080001B020CF1080C13F0704F04BF1B010CF154
:10509000040C13F0404F04BF0CF1020C5FEA8303D1
:1050A0005CBF0CF1010C5B00CCF1200E22FA0EF477
:1050B000234302FA0CF200FA0CF520FA0EF001FA82
:1050C0000CF4204321FA0EF114461A4600F024F89D
:1050D000A4FB0023AA1A71EB03033CBF1B19013880
:1050E000CCF1200E22FA0CF203FA0EF4224323FA3A
:1050F0000CF30021A7E7821A71EB03033CBF0246C1
:105100000B464FF0000141F100009CE70020002118
:10511000BDE8304000F03DB80423B1EB122F09D2B6
:10512000090241EA10610002013B08BF7047B1EB80
:10513000122FF5D30018494134BF9142891A4041DA
:10514000494134BF9142891A4041494134BF91429B
:10515000891A4041494134BF9142891A404149412D
:1051600034BF9142891A4041494134BF9142891A62
:105170004041494134BF9142891A4041494134BFBD
:105180009142891A4041A3F1010313F00F0FD2D1CC
:1051900070477047034613F0030F0ED101F0FF0173
:1051A00041EA012141EA0141043A24BF43F8041BCA
:1051B000B2F10402F9D202F10402013A24BF03F869
:1051C000011BFAE770474FF0FF3070474FF0FF3098
:1051D00070474FF0FF3070474FF0FF3070474FF08F
:1051E000FF3070474FF0FF30704710467047FFFFA9
:1051F000415353455254204552524F5220222025AC
:1052000073200A00433A5C55736572735C4A657299
:1052100072795C4465736B746F705C576176656E10
:10522000756D6265725C7370695F6E656F706978C9
:10523000656C5F64656D6F5C7370695F6E656F70E0
:105240006978656C5C6672646D6D63786131353365
:105250005F7370695F6E656F706978656C5C6472AE
:1052600069766572732F66736C5F65646D612E6815
:105270003A363739203A206368616E6E656C203C9F
:10528000202875696E7433325F742946534C5F462B
:105290004541545552455F45444D415F494E535435
:1052A000414E43455F4348414E4E454C6E28626136
:1052B0007365290054686973206973204C505350FA
:1052C00049206D61737465722065646D612074722C
:1052D000616E7366657220636F6D706C6574656472
:1052E0002063616C6C6261636B2E200D0A0D0A00F5
:1052F0004C5053504920626F61726420746F206279
:105300006F6172642065646D61206578616D706C99
:10531000652E0D0A000000000D0A2050726573739F
:1053200020616E79206B657920746F2072756E2014
:10533000616761696E0D0A00FFFF0000FFFFFF005B
:10534000FFA500000000000055000000460000001E
:105350003700000028000000190000000A000000CB
:1053600000FFFFFF66736C5F636C6F636B2E633AC5
:10537000313038203A2073656C5F6E616D65203C7A
:105380003D206B434C4F434B5F53656C4D61780040
:1053900066736C5F636C6F636B2E633A31353220DA
:1053A0003A206469765F6E616D65203C3D206B43F9
:1053B0004C4F434B5F4469764D61780066736C5F78
:1053C00065646D612E683A363739203A206368612A
:1053D0006E6E656C203C202875696E7433325F7484
:1053E0002946534C5F464541545552455F45444D0F
:1053F000415F494E5354414E43455F4348414E4EF1
:10540000454C6E28626173652900FFFF66736C5F0F
:1054100065646D612E683A373132203A20636861E5
:105420006E6E656C203C202875696E7433325F7433
:105430002946534C5F464541545552455F45444DBE
:10544000415F494E5354414E43455F4348414E4EA0
:10545000454C6E28626173652900FFFF66736C5FBF
:1054600065646D612E683A373538203A206368618B
:105470006E6E656C203C202875696E7433325F74E3
:105480002946534C5F464541545552455F45444D6E
:10549000415F494E5354414E43455F4348414E4E50
:1054A000454C6E28626173652900FFFF0203040505
:1054B00066736C5F65646D612E633A3835203A20FF
:1054C000696E7374616E6365203C2041525241598C
:1054D0005F53495A4528735F65646D614261736526
:1054E000732900FF66736C5F65646D612E633A31EA
:1054F0003630203A20636F6E66696720213D204E6A
:10550000554C4C0066736C5F65646D612E633A3276
:105510003338203A206368616E6E656C436F6E6647
:10552000696720213D204E554C4C00FF66736C5F2F
:1055300065646D612E633A323932203A20636F6EB2
:1055400066696720213D204E554C4C0066736C5FA8
:1055500065646D612E633A333237203A20636861A7
:105560006E6E656C203C202875696E7433325F74F2
:105570002946534C5F464541545552455F45444D7D
:10558000415F494E5354414E43455F4348414E4E5F
:10559000454C6E28626173652900FFFF66736C5F7E
:1055A00065646D612E633A333635203A2063686155
:1055B0006E6E656C203C202875696E7433325F74A2
:1055C0002946534C5F464541545552455F45444D2D
:1055D000415F494E5354414E43455F4348414E4E0F
:1055E000454C6E28626173652900000066736C5F2C
:1055F00065646D612E633A333636203A20636F6EF0
:1056000066696720213D204E554C4C0066736C5FE7
:1056100065646D612E633A333637203A2028287549
:10562000696E7433325F74296E65787454636420D4
:105630002620307831465529203D3D20305500FF49
:1056400066736C5F65646D612E633A343236203A5E
:10565000206368616E6E656C203C202875696E74ED
:1056600033325F742946534C5F4645415455524589
:105670005F45444D415F494E5354414E43455F435E
:1056800048414E4E454C6E2862617365290000000A
:1056900066736C5F65646D612E633A343237203A0D
:1056A00020636F6E66696720213D204E554C4C008B
:1056B00066736C5F65646D612E633A353235203AEE
:1056C0002074636420213D204E554C4C00000000A6
:1056D00066736C5F65646D612E633A353236203ACD
:1056E00020282875696E7433325F742974636420CE
:1056F0002620307831465529203D3D20305500FF89
:1057000066736C5F65646D612E633A353732203A9B
:105710002074636420213D204E554C4C0000000055
:1057200066736C5F65646D612E633A353733203A7A
:1057300020282875696E7433325F7429746364207D
:105740002620307831465529203D3D203055000037
:1057500066736C5F65646D612E633A353734203A49
:1057600020636F6E66696720213D204E554C4C00CA
:1057700066736C5F65646D612E633A363038203A2B
:10578000207472616E7366657220213D204E554C07
:105790004C00000066736C5F65646D612E633A3681
:1057A0003039203A20287472616E736665722D3E1E
:1057B0006D696E6F724C6F6F7042797465732025DE
:1057C000202831554C203C3C20282875696E7433C4
:1057D000325F74297472616E736665722D3E7372E6
:1057E000635472616E7366657253697A65292929FB
:1057F000203D3D203055000066736C5F65646D612F
:105800002E633A363130203A20287472616E736606
:1058100065722D3E6D696E6F724C6F6F7042797458
:1058200065732025202831554C203C3C20282875C4
:10583000696E7433325F74297472616E7366657257
:105840002D3E646573745472616E7366657253693C
:105850007A65292929203D3D2030550066736C5F0B
:1058600065646D612E633A363131203A20282875FF
:10587000696E7433325F74297472616E7366657217
:105880002D3E7372634F6666736574202520283140
:10589000554C203C3C20282875696E7433325F7467
:1058A000297472616E736665722D3E7372635472F1
:1058B000616E7366657253697A65292929203D3DB9
:1058C0002030550066736C5F65646D612E633A36F7
:1058D0003132203A20282875696E7433325F74297A
:1058E0007472616E736665722D3E646573744F6683
:1058F000667365742025202831554C203C3C2028B7
:105900002875696E7433325F74297472616E7366C0
:1059100065722D3E646573745472616E7366657250
:1059200053697A65292929203D3D20305500000022
:1059300066736C5F65646D612E633A363133203A6D
:1059400020287472616E736665722D3E73726341B6
:105950006464722025202831554C203C3C202828A6
:1059600075696E7433325F74297472616E73666523
:10597000722D3E7372635472616E73666572536901
:105980007A65292929203D3D2030550066736C5FDA
:1059900065646D612E633A363134203A2028747282
:1059A000616E736665722D3E6465737441646472E2
:1059B0002025202831554C203C3C20282875696E34
:1059C0007433325F74297472616E736665722D3E32
:1059D000646573745472616E7366657253697A6537
:1059E000292929203D3D20305500000066736C5F59
:1059F00065646D612E633A363135203A2028747221
:105A0000616E736665722D3E7372634164647220C9
:105A100025202831554C203C3C20282875696E747F
:105A200033325F74297472616E736665722D3E73D2
:105A30007263416464724D6F64756C6F292929200B
:105A40003D3D20305500000066736C5F65646D61FC
:105A50002E633A363136203A20287472616E7366AE
:105A600065722D3E6465737441646472202520283C
:105A700031554C203C3C20282875696E7433325FC8
:105A800074297472616E736665722D3E647374411D
:105A90006464724D6F64756C6F292929203D3D2027
:105AA000305500FF66736C5F65646D612E633A3933
:105AB0003238203A206368616E6E656C203C202885
:105AC00075696E7433325F742946534C5F464541A5
:105AD000545552455F45444D415F494E5354414EE4
